:100000000C942A000C9449000C9480000C94470036
:100010000C9447000C9447000C9447000C94470044
:100020000C9447000C9447000C9447000C94470034
:100030000C9447000C9447000C9447000C94470024
:100040000C9447000C9447000C94C4000C94470097
:100050000C94470011241FBECFE5D4E0DEBFCDBF16
:1000600010E0A0E6B0E0E6E1F2E002C005900D92FB
:10007000AA36B107D9F710E0AAE6B0E001C01D9298
:10008000AB36B107E1F70E94F0000C9409010C9423
:1000900000001F920F920FB60F9211248F939F931F
:1000A000AF93BF938FE08BBB8FE39DE0A3E08150C4
:1000B0009040A040E1F700C000001BBA8FE39DE034
:1000C000A3E081509040A040E1F700C00000BF9144
:1000D000AF919F918F910F900FBE0F901F90189529
:1000E0008FB78F778FBF8BB780648BBF85B78260E8
:1000F00085BF85B78E7F85BF8FB780688FBF089516
:100100001F920F920FB60F9211242F933F934F938C
:100110005F938F939F93EF93FF9310926A0020E079
:1001200080E690E0FC01E20FF11D208125BB2FE964
:1001300036E841E0215030404040E1F700C0000087
:1001400020916A002F5F20936A002A3058F3FF91B4
:10015000EF919F918F915F914F913F912F910F90D0
:100160000FBE0F901F9018958FB78F778FBF8BB7EB
:1001700080688BBF85B7886085BF85B78D7F85BF59
:100180008FB780688FBF08951F920F920FB60F929E
:1001900011248F939F93AF93BF93C698C79A8FE311
:1001A00092E4AFE081509040A040E1F700C0000031
:1001B000C69AC79ABF91AF919F918F910F900FBE32
:1001C0000F901F9018958FB78F778FBF8BB7806276
:1001D0008BBF84B78F7B84BF8FB780688FBF089534
:1001E00084B38F6084BB85B3807F85BB8FE08ABB7F
:1001F0001BBABE9ABF9AC69AC79A8A988B9887B339
:100200008B6F87BB0E9470000E94B4000E94E300C5
:06021000FFCFF894FFCFC0
:0A02160000010203040506070809B1
:00000001FF
